:1000000013C037C036C035C034C033C0E5C031C0BE
:1000100030C02FC02BC12DC02CC02BC02AC029C07E
:1000200028C027C026C0860111241FBECFE5D1E01D
:10003000DEBFCDBF20E0AEE7B0E001C01D92AD3A1B
:10004000B207E1F710E0A0E6B0E0E0E9F6E002C0B8
:1000500005900D92AE37B107D9F710E0C4E1D0E0BA
:1000600003C02197FE010CD3C331D107D1F76AD168
:100070000DC3C6CF08952FB7F894FC01458556856A
:100080003AE06095089420F47BB375237BBB04C0F1
:100090007BB3742B7BBB000033D132D131D130D153
:1000A00066953A9581F72FBF81E090E00895DC01D5
:1000B0001F96ED91FC9120893189828993892817B7
:1000C000390779F0A289B389AE0FBF1F8C912289BD
:1000D00033892F5F3F4F2F703327338B228B90E074
:1000E00008958FEF9FEF0895DC011F96ED91FC912D
:1000F00020893189828993892817390739F08289C3
:100100009389E80FF91F808190E008958FEF9FEFAA
:100110000895DC011F96ED91FC91808991892289D7
:100120003389821B930B8F7099270895BF92CF92CA
:10013000DF92EF92FF920F931F93CF93DF934115BE
:10014000510509F446C08C01EB016B01C40ED51EAC
:10015000F12CE12C8AE0B82ED801ED91FC910190B0
:10016000F081E02D6991B0E0EB33FB0749F52FB743
:10017000F894F801358546856095089420F47BB3A2
:1001800074237BBB04C07BB3732B7BBB0000B8D054
:10019000B7D0B6D0B5D06695BA9481F72FBFFFEF30
:1001A000EF1AFF0ACC15DD05B9F6C701DF91CF9133
:1001B0001F910F91FF90EF90DF90CF90BF90089527
:1001C000C8010995E80EF91ECC15DD0509F0C4CF6C
:1001D000ECCFF12CE12CE9CF1F920F920FB60F92CA
:1001E00011242F933F938F939F93AF93BF9380914D
:1001F000A9009091AA00A091AB00B091AC00309101
:10020000A80026E0230F2D3758F50296A11DB11D39
:100210002093A8008093A9009093AA00A093AB001C
:10022000B093AC008091A4009091A500A091A6008D
:10023000B091A7000196A11DB11D8093A4009093D9
:10024000A500A093A600B093A700BF91AF919F9186
:100250008F913F912F910F900FBE0F901F90189587
:1002600029E8230F0396A11DB11DD2CF1F920F9233
:100270000FB60F9211242F933F934F935F937F9369
:100280008F939F93AF93BF93EF93FF9340919E0003
:1002900020E038E035D034D033D032D031D088941B
:1002A00079B3742309F0089427953A9509F0F3CFB0
:1002B00027D026D0E091A100F091A20080899189F9
:1002C00001968F709927428953898417950739F0D1
:1002D000A089B189AE0FBF1F2C93918B808B449A5C
:1002E000FF91EF91BF91AF919F918F917F915F911E
:1002F0004F913F912F910F900FBE0F901F90189527
:100300008091A300982F9A95F1F70895E2E9F0E023
:100310001382128288EE93E0A0E0B0E0848395839C
:10032000A683B78384E690E0918380838EE790E094
:10033000908B878780E8848780E485878FEB86872A
:10034000118A089582E083BF789489B7826089BF5B
:1003500083E080BF81E087BD86BD84E08FBD83E8F8
:1003600086B9449A43984698479AE091A100F09143
:10037000A20082899389918B808B8EEF8093A3005A
:100380004398469A4798419A409A2AB390919E0082
:10039000892F809582238ABB8BB3892B8BBB8AB331
:1003A00090919F00892B8ABB8BB3892B8BBB449A7E
:1003B000439A19B83FB7F8948091A4009091A50092
:1003C000A091A600B091A70022B708B601FE05C013
:1003D0002F3F19F00196A11DB11D3FBFBA2FA92FC4
:1003E000982F8827820F911DA11DB11D880F991F7D
:1003F000AA1FBB1F880F991FAA1FBB1F880F991F19
:10040000AA1FBB1F00ED17E020E030E00BC0011574
:10041000110521053105C9F10150110921093109E1
:1004200088519C4FFFB7F8944091A4005091A500CB
:100430006091A6007091A700E2B708B601FE06C061
:10044000EF3F21F04F5F5F4F6F4F7F4FFFBF762F22
:10045000652F542F44274E0F511D611D711D440FF0
:10046000551F661F771F440F551F661F771F440FC8
:10047000551F661F771F481B590B483E534038F6DF
:10048000011511052105310569F64DE050E060E7E1
:1004900070E082E990E04ADE6DE082E990E0EBDD19
:1004A0006AE082E990E0E7DD8FB7F894BD9A8FBFEC
:1004B00087B5877F87BD8FB7F894C59A8FBF3FB741
:1004C000F8948091A4009091A500A091A600B0910D
:1004D000A70022B708B601FE05C02F3F19F001960C
:1004E000A11DB11D3FBFBA2FA92F982F8827820FBA
:1004F000911DA11DB11D880F991FAA1FBB1F880F39
:10050000991FAA1FBB1F9C01AD01220F331F441F5F
:10051000551F44EF51E060E070E00BC041155105FC
:1005200061057105C1F141505109610971092851F5
:100530003C4FFFB7F8948091A4009091A500A09142
:10054000A600B091A700E2B708B601FE05C0EF3FD4
:1005500019F00196A11DB11DFFBFBA2FA92F982F29
:1005600088278E0F911DA11DB11D880F991FAA1FED
:10057000BB1F880F991FAA1FBB1F880F991FAA1F97
:10058000BB1F821B930B883E934040F641155105DB
:100590006105710571F687B5877F87BD8FB7F894C0
:1005A000C5988FBF3FB7F8948091A4009091A500A3
:1005B000A091A600B091A70022B708B601FE05C021
:1005C0002F3F19F00196A11DB11D3FBFBA2FA92FD2
:1005D000982F8827820F911DA11DB11D880F991F8B
:1005E000AA1FBB1F880F991FAA1FBB1F9C01AD012B
:1005F000220F331F441F551F44EF51E060E070E0AD
:100600000CC0411551056105710509F451CF4150E8
:1006100051096109710928513C4FFFB7F894809145
:10062000A4009091A500A091A600B091A700E2B708
:1006300008B601FE05C0EF3F19F00196A11DB11DDE
:10064000FFBFBA2FA92F982F88278E0F911DA11DAC
:10065000B11D880F991FAA1FBB1F880F991FAA1FC2
:10066000BB1F880F991FAA1FBB1F821B930B883EBD
:10067000934038F6411551056105710571F618CFA3
:10068000EE0FFF1F0590F491E02D0994F894FFCF31
:10069000000000003B0096008900570074003A00FB
:0E06A00048656C6C6F2C20776F726C642100C3
:00000001FF
