:100000000C9461000C9473000C9473000C947300B6
:100010000C9473000C9473000C9473000C94730094
:100020000C9473000C9473000C9473000C94730084
:100030000C9473000C9473000C9473000C94730074
:100040000C9417010C9473000C9473000C947300BF
:100050000C9473000C9473000C9473000C94730054
:100060000C9473000C94730000000000240027001F
:100070002A000000000023002600290000000000E4
:10008000250028002B0004040404040404040202D4
:100090000202020203030303030301020408102007
:1000A0004080010204081020010204081020000012
:1000B0000008000201000003040700000000000027
:1000C000000011241FBECFEFD8E0DEBFCDBF21E07E
:1000D000A0E0B1E001C01D92AB30B207E1F70E9491
:1000E00061010C9426020C940000833081F028F406
:1000F000813099F08230A9F008958730A9F08830D6
:10010000C9F08430B1F4809180008F7D03C080916C
:1001100080008F7780938000089584B58F7784BDA9
:10012000089584B58F7DFBCF8091B0008F77809349
:10013000B00008958091B0008F7DF9CF1F93CF93C9
:10014000DF93EBEBF0E09491E7EAF0E0D491E3E9A0
:10015000F0E0C491CC23B9F0182F992319F0892F1E
:100160000E947500EC2FF0E0EE0FFF1FE458FF4FE8
:10017000A591B4918FB7F894EC91111108C0D09566
:10018000DE23DC938FBFDF91CF911F910895DE2B8B
:10019000F8CFCF93DF93282F30E0F901E255FF4FDE
:1001A0008491F901E656FF4FD491F901EA57FF4FC8
:1001B000C491CC23A1F081110E947500EC2FF0E0D6
:1001C000EE0FFF1FEE58FF4FA591B491EC91ED2378
:1001D00081E090E009F480E0DF91CF91089580E024
:1001E00090E0FACF3FB7F894809107019091080111
:1001F000A0910901B0910A0126B5A89B05C02F3F27
:1002000019F00196A11DB11D3FBFBA2FA92F982F3C
:100210008827BC01CD01620F711D811D911D42E037
:10022000660F771F881F991F4A95D1F708951F926F
:100230000F920FB60F9211242F933F938F939F939A
:10024000AF93BF938091030190910401A0910501A8
:10025000B09106013091020123E0230F2D3758F5AC
:100260000196A11DB11D209302018093030190937B
:100270000401A0930501B0930601809107019091BC
:100280000801A0910901B0910A010196A11DB11DBB
:100290008093070190930801A0930901B0930A018C
:1002A000BF91AF919F918F913F912F910F900FBE72
:1002B0000F901F90189526E8230F0296A11DB11DDF
:1002C000D2CF789484B5826084BD84B5816084BDCA
:1002D00085B5826085BD85B5816085BD80916E00E4
:1002E000816080936E001092810080918100826015
:1002F0008093810080918100816080938100809152
:1003000080008160809380008091B1008460809340
:10031000B1008091B00081608093B00080917A003C
:10032000846080937A0080917A00826080937A0062
:1003300080917A00816080937A0080917A00806851
:1003400080937A001092C100E6EAF0E02491E2E99D
:10035000F0E084918823C1F090E0880F991FFC01A0
:10036000E859FF4FC591D491FC01E458FF4FA59186
:10037000B4919FB7F8948881E22FE0958E2388830B
:100380008C91E823EC939FBFE7EAF0E02491E3E946
:10039000F0E08491882399F090E0880F991FFC0188
:1003A000E859FF4FA591B491FC01E458FF4F8591A6
:1003B00094918FB7F894EC91E22BEC938FBF8091DE
:1003C00000010E949E0000E010E0C0910001D09169
:1003D000010180E00E94C900892B59F18CE00E9444
:1003E000C900C827D927892B21F10E94F2004B01AF
:1003F0005C0188ECC82ED12CE12CF12C0E94F2007B
:10040000681979098A099B09683E7340810591053D
:10041000A8F321E0C21AD108E108F10888EE880E9D
:1004200083E0981EA11CB11CC114D104E104F104A5
:1004300029F7D0930101C09300018C2F0E949E00E8
:100440000115110511F20E940000BFCFF894FFCFF3
:00000001FF
